{
  "_format": "hh-sol-artifact-1",
  "contractName": "UniswapV2Factory",
  "sourceName": "contracts/UniswapV2Factory.sol",
  "abi": [
    {
      "inputs": [
        {
          "internalType": "address",
          "name": "_feeToSetter",
          "type": "address"
        }
      ],
      "stateMutability": "nonpayable",
      "type": "constructor"
    },
    {
      "anonymous": false,
      "inputs": [
        {
          "indexed": true,
          "internalType": "address",
          "name": "token0",
          "type": "address"
        },
        {
          "indexed": true,
          "internalType": "address",
          "name": "token1",
          "type": "address"
        },
        {
          "indexed": false,
          "internalType": "address",
          "name": "pair",
          "type": "address"
        },
        {
          "indexed": false,
          "internalType": "uint256",
          "name": "",
          "type": "uint256"
        }
      ],
      "name": "PairCreated",
      "type": "event"
    },
    {
      "inputs": [
        {
          "internalType": "uint256",
          "name": "",
          "type": "uint256"
        }
      ],
      "name": "allPairs",
      "outputs": [
        {
          "internalType": "address",
          "name": "",
          "type": "address"
        }
      ],
      "stateMutability": "view",
      "type": "function"
    },
    {
      "inputs": [],
      "name": "allPairsLength",
      "outputs": [
        {
          "internalType": "uint256",
          "name": "",
          "type": "uint256"
        }
      ],
      "stateMutability": "view",
      "type": "function"
    },
    {
      "inputs": [
        {
          "internalType": "address",
          "name": "tokenA",
          "type": "address"
        },
        {
          "internalType": "address",
          "name": "tokenB",
          "type": "address"
        }
      ],
      "name": "createPair",
      "outputs": [
        {
          "internalType": "address",
          "name": "pair",
          "type": "address"
        }
      ],
      "stateMutability": "nonpayable",
      "type": "function"
    },
    {
      "inputs": [],
      "name": "fee",
      "outputs": [
        {
          "internalType": "uint256",
          "name": "",
          "type": "uint256"
        }
      ],
      "stateMutability": "view",
      "type": "function"
    },
    {
      "inputs": [],
      "name": "feeTo",
      "outputs": [
        {
          "internalType": "address",
          "name": "",
          "type": "address"
        }
      ],
      "stateMutability": "view",
      "type": "function"
    },
    {
      "inputs": [],
      "name": "feeToSetter",
      "outputs": [
        {
          "internalType": "address",
          "name": "",
          "type": "address"
        }
      ],
      "stateMutability": "view",
      "type": "function"
    },
    {
      "inputs": [
        {
          "internalType": "address",
          "name": "",
          "type": "address"
        },
        {
          "internalType": "address",
          "name": "",
          "type": "address"
        }
      ],
      "name": "getPair",
      "outputs": [
        {
          "internalType": "address",
          "name": "",
          "type": "address"
        }
      ],
      "stateMutability": "view",
      "type": "function"
    },
    {
      "inputs": [],
      "name": "migrator",
      "outputs": [
        {
          "internalType": "address",
          "name": "",
          "type": "address"
        }
      ],
      "stateMutability": "view",
      "type": "function"
    },
    {
      "inputs": [],
      "name": "pairCodeHash",
      "outputs": [
        {
          "internalType": "bytes32",
          "name": "",
          "type": "bytes32"
        }
      ],
      "stateMutability": "pure",
      "type": "function"
    },
    {
      "inputs": [
        {
          "internalType": "uint256",
          "name": "_fee",
          "type": "uint256"
        }
      ],
      "name": "setFee",
      "outputs": [],
      "stateMutability": "nonpayable",
      "type": "function"
    },
    {
      "inputs": [
        {
          "internalType": "address",
          "name": "_feeTo",
          "type": "address"
        }
      ],
      "name": "setFeeTo",
      "outputs": [],
      "stateMutability": "nonpayable",
      "type": "function"
    },
    {
      "inputs": [
        {
          "internalType": "address",
          "name": "_feeToSetter",
          "type": "address"
        }
      ],
      "name": "setFeeToSetter",
      "outputs": [],
      "stateMutability": "nonpayable",
      "type": "function"
    },
    {
      "inputs": [
        {
          "internalType": "address",
          "name": "_migrator",
          "type": "address"
        }
      ],
      "name": "setMigrator",
      "outputs": [],
      "stateMutability": "nonpayable",
      "type": "function"
    }
  ],
  "bytecode": "0x60806040526003805534801561001457600080fd5b50604051612ef1380380612ef18339818101604052602081101561003757600080fd5b5051600180546001600160a01b0319166001600160a01b03909216919091179055612e8a806100676000396000f3fe608060405234801561001057600080fd5b50600436106100df5760003560e01c80637cd07e471161008c578063c9c6539611610066578063c9c65396146101c2578063ddca3f43146101f0578063e6a43905146101f8578063f46901ed14610226576100df565b80637cd07e471461018c5780639aab924814610194578063a2e74af61461019c576100df565b806323cf3118116100bd57806323cf31181461012d578063574f2ba31461015557806369fe0e2d1461016f576100df565b8063017e7e58146100e4578063094b7415146101085780631e3dd18b14610110575b600080fd5b6100ec61024c565b604080516001600160a01b039092168252519081900360200190f35b6100ec61025b565b6100ec6004803603602081101561012657600080fd5b503561026a565b6101536004803603602081101561014357600080fd5b50356001600160a01b0316610291565b005b61015d610316565b60408051918252519081900360200190f35b6101536004803603602081101561018557600080fd5b503561031c565b6100ec610377565b61015d610386565b610153600480360360208110156101b257600080fd5b50356001600160a01b03166103b8565b6100ec600480360360408110156101d857600080fd5b506001600160a01b038135811691602001351661043d565b61015d61077c565b6100ec6004803603604081101561020e57600080fd5b506001600160a01b0381358116916020013516610782565b6101536004803603602081101561023c57600080fd5b50356001600160a01b03166107a8565b6000546001600160a01b031681565b6001546001600160a01b031681565b6005818154811061027757fe5b6000918252602090912001546001600160a01b0316905081565b6001546001600160a01b031633146102e7576040805162461bcd60e51b81526020600482015260146024820152732ab734b9bbb0b82b191d102327a92124a22222a760611b604482015290519081900360640190fd5b6002805473ffffffffffffffffffffffffffffffffffffffff19166001600160a01b0392909216919091179055565b60055490565b6001546001600160a01b03163314610372576040805162461bcd60e51b81526020600482015260146024820152732ab734b9bbb0b82b191d102327a92124a22222a760611b604482015290519081900360640190fd5b600355565b6002546001600160a01b031681565b6000604051806020016103989061082d565b6020820181038252601f19601f8201166040525080519060200120905090565b6001546001600160a01b0316331461040e576040805162461bcd60e51b81526020600482015260146024820152732ab734b9bbb0b82b191d102327a92124a22222a760611b604482015290519081900360640190fd5b6001805473ffffffffffffffffffffffffffffffffffffffff19166001600160a01b0392909216919091179055565b6000816001600160a01b0316836001600160a01b031614156104a6576040805162461bcd60e51b815260206004820152601e60248201527f556e697377617056323a204944454e544943414c5f4144445245535345530000604482015290519081900360640190fd5b600080836001600160a01b0316856001600160a01b0316106104c95783856104cc565b84845b90925090506001600160a01b03821661052c576040805162461bcd60e51b815260206004820152601760248201527f556e697377617056323a205a45524f5f41444452455353000000000000000000604482015290519081900360640190fd5b6001600160a01b038281166000908152600460209081526040808320858516845290915290205416156105a6576040805162461bcd60e51b815260206004820152601660248201527f556e697377617056323a20504149525f45584953545300000000000000000000604482015290519081900360640190fd5b6060604051806020016105b89061082d565b6020820181038252601f19601f8201166040525090506000838360405160200180836001600160a01b031660601b8152601401826001600160a01b031660601b815260140192505050604051602081830303815290604052805190602001209050808251602084016000f59450846001600160a01b031663485cc95585856040518363ffffffff1660e01b815260040180836001600160a01b03168152602001826001600160a01b0316815260200192505050600060405180830381600087803b15801561068557600080fd5b505af1158015610699573d6000803e3d6000fd5b505050506001600160a01b0384811660008181526004602081815260408084208987168086529083528185208054978d1673ffffffffffffffffffffffffffffffffffffffff1998891681179091559383528185208686528352818520805488168517905560058054600181018255958190527f036b6384b5eca791c62761152d0c79bb0604c104a5fb6f4eb0703f3154bb3db090950180549097168417909655925483519283529082015281517f0d3648bd0f6ba80134a33ba9275ac585d9d315f0ad8355cddefde31afa28d0e9929181900390910190a35050505092915050565b60035481565b60046020908152600092835260408084209091529082529020546001600160a01b031681565b6001546001600160a01b031633146107fe576040805162461bcd60e51b81526020600482015260146024820152732ab734b9bbb0b82b191d102327a92124a22222a760611b604482015290519081900360640190fd5b6000805473ffffffffffffffffffffffffffffffffffffffff19166001600160a01b0392909216919091179055565b61261a8061083b8339019056fe60806040526001600c5534801561001557600080fd5b50604080518082018252601281527129bab9b434a9bbb0b8102628102a37b5b2b760711b6020918201528151808301835260018152603160f81b9082015281517f8b73c3c69bb8fe3d512ecc4cf759cc79239f7b179b0ffacaa9a75d522b39400f818301527fefbffe65652a145845c9bc8d0532945be6b9830fe1e9966c887bd298e551ac83818401527fc89efdaa54c0f20c7adf612882df0950f5a951637e0307cdcb4c672f298b8bc660608201524660808201523060a0808301919091528351808303909101815260c09091019092528151910120600355600580546001600160a01b0319163317905561250a806101106000396000f3fe608060405234801561001057600080fd5b50600436106101b95760003560e01c80636a627842116100f9578063ba9a7a5611610097578063d21220a711610071578063d21220a714610544578063d505accf1461054c578063dd62ed3e1461059d578063fff6cae9146105cb576101b9565b8063ba9a7a561461050e578063bc25cf7714610516578063c45a01551461053c576101b9565b80637ecebe00116100d35780637ecebe001461047557806389afcb441461049b57806395d89b41146104da578063a9059cbb146104e2576101b9565b80636a6278421461042157806370a08231146104475780637464fc3d1461046d576101b9565b806323b872dd116101665780633644e515116101405780633644e515146103db578063485cc955146103e35780635909c0d5146104115780635a3d549314610419576101b9565b806323b872dd1461037f57806330adf81f146103b5578063313ce567146103bd576101b9565b8063095ea7b311610197578063095ea7b3146103015780630dfe16811461034157806318160ddd14610365576101b9565b8063022c0d9f146101be57806306fdde031461024c5780630902f1ac146102c9575b600080fd5b61024a600480360360808110156101d457600080fd5b8135916020810135916001600160a01b03604083013516919081019060808101606082013564010000000081111561020b57600080fd5b82018360208201111561021d57600080fd5b8035906020019184600183028401116401000000008311171561023f57600080fd5b5090925090506105d3565b005b610254610b7f565b6040805160208082528351818301528351919283929083019185019080838360005b8381101561028e578181015183820152602001610276565b50505050905090810190601f1680156102bb5780820380516001836020036101000a031916815260200191505b509250505060405180910390f35b6102d1610bb8565b604080516001600160701b03948516815292909316602083015263ffffffff168183015290519081900360600190f35b61032d6004803603604081101561031757600080fd5b506001600160a01b038135169060200135610be2565b604080519115158252519081900360200190f35b610349610bf9565b604080516001600160a01b039092168252519081900360200190f35b61036d610c08565b60408051918252519081900360200190f35b61032d6004803603606081101561039557600080fd5b506001600160a01b03813581169160208101359091169060400135610c0e565b61036d610ca2565b6103c5610cc6565b6040805160ff9092168252519081900360200190f35b61036d610ccb565b61024a600480360360408110156103f957600080fd5b506001600160a01b0381358116916020013516610cd1565b61036d610d76565b61036d610d7c565b61036d6004803603602081101561043757600080fd5b50356001600160a01b0316610d82565b61036d6004803603602081101561045d57600080fd5b50356001600160a01b0316611226565b61036d611238565b61036d6004803603602081101561048b57600080fd5b50356001600160a01b031661123e565b6104c1600480360360208110156104b157600080fd5b50356001600160a01b0316611250565b6040805192835260208301919091528051918290030190f35b6102546115e4565b61032d600480360360408110156104f857600080fd5b506001600160a01b03813516906020013561161d565b61036d61162a565b61024a6004803603602081101561052c57600080fd5b50356001600160a01b0316611630565b6103496117a2565b6103496117b1565b61024a600480360360e081101561056257600080fd5b506001600160a01b03813581169160208101359091169060408101359060608101359060ff6080820135169060a08101359060c001356117c0565b61036d600480360360408110156105b357600080fd5b506001600160a01b03813581169160200135166119e8565b61024a611a05565b600c5460011461061e576040805162461bcd60e51b8152602060048201526011602482015270155b9a5cddd85c158c8e881313d0d2d151607a1b604482015290519081900360640190fd5b6000600c55841515806106315750600084115b61066c5760405162461bcd60e51b815260040180806020018281038252602581526020018061241b6025913960400191505060405180910390fd5b600080610677610bb8565b5091509150816001600160701b03168710801561069c5750806001600160701b031686105b6106d75760405162461bcd60e51b81526004018080602001828103825260218152602001806124646021913960400191505060405180910390fd5b60065460075460009182916001600160a01b039182169190811690891682148015906107155750806001600160a01b0316896001600160a01b031614155b610766576040805162461bcd60e51b815260206004820152601560248201527f556e697377617056323a20494e56414c49445f544f0000000000000000000000604482015290519081900360640190fd5b8a1561077757610777828a8d611b67565b891561078857610788818a8c611b67565b861561083a57886001600160a01b03166310d1e85c338d8d8c8c6040518663ffffffff1660e01b815260040180866001600160a01b03168152602001858152602001848152602001806020018281038252848482818152602001925080828437600081840152601f19601f8201169050808301925050509650505050505050600060405180830381600087803b15801561082157600080fd5b505af1158015610835573d6000803e3d6000fd5b505050505b604080516370a0823160e01b815230600482015290516001600160a01b038416916370a08231916024808301926020929190829003018186803b15801561088057600080fd5b505afa158015610894573d6000803e3d6000fd5b505050506040513d60208110156108aa57600080fd5b5051604080516370a0823160e01b815230600482015290519195506001600160a01b038316916370a0823191602480820192602092909190829003018186803b1580156108f657600080fd5b505afa15801561090a573d6000803e3d6000fd5b505050506040513d602081101561092057600080fd5b5051925060009150506001600160701b0385168a90038311610943576000610952565b89856001600160701b03160383035b9050600089856001600160701b031603831161096f57600061097e565b89856001600160701b03160383035b9050600082118061098f5750600081115b6109ca5760405162461bcd60e51b81526004018080602001828103825260248152602001806124406024913960400191505060405180910390fd5b600554604080517fddca3f4300000000000000000000000000000000000000000000000000000000815290516000926001600160a01b03169163ddca3f43916004808301926020929190829003018186803b158015610a2857600080fd5b505afa158015610a3c573d6000803e3d6000fd5b505050506040513d6020811015610a5257600080fd5b505190506000610a77610a658584611d1a565b610a71886103e8611d1a565b90611d86565b90506000610a88610a658585611d1a565b9050610aad620f4240610aa76001600160701b038c8116908c16611d1a565b90611d1a565b610ab78383611d1a565b1015610b0a576040805162461bcd60e51b815260206004820152600c60248201527f556e697377617056323a204b0000000000000000000000000000000000000000604482015290519081900360640190fd5b505050610b1984848888611dde565b60408051838152602081018390528082018d9052606081018c905290516001600160a01b038b169133917fd78ad95fa46c994b6551d0da85fc275fe613ce37657fb8d5e3d130840159d8229181900360800190a350506001600c55505050505050505050565b6040518060400160405280601281526020017f537573686953776170204c5020546f6b656e000000000000000000000000000081525081565b6008546001600160701b0380821692600160701b830490911691600160e01b900463ffffffff1690565b6000610bef338484611fb5565b5060015b92915050565b6006546001600160a01b031681565b60005481565b6001600160a01b038316600090815260026020908152604080832033845290915281205460001914610c8d576001600160a01b0384166000908152600260209081526040808320338452909152902054610c689083611d86565b6001600160a01b03851660009081526002602090815260408083203384529091529020555b610c98848484612017565b5060019392505050565b7f6e71edae12b1b97f4d1f60370fef10105fa2faae0126114a169c64845d6126c981565b601281565b60035481565b6005546001600160a01b03163314610d30576040805162461bcd60e51b815260206004820152601460248201527f556e697377617056323a20464f5242494444454e000000000000000000000000604482015290519081900360640190fd5b600680546001600160a01b039384167fffffffffffffffffffffffff00000000000000000000000000000000000000009182161790915560078054929093169116179055565b60095481565b600a5481565b6000600c54600114610dcf576040805162461bcd60e51b8152602060048201526011602482015270155b9a5cddd85c158c8e881313d0d2d151607a1b604482015290519081900360640190fd5b6000600c81905580610ddf610bb8565b50600654604080516370a0823160e01b815230600482015290519395509193506000926001600160a01b03909116916370a08231916024808301926020929190829003018186803b158015610e3357600080fd5b505afa158015610e47573d6000803e3d6000fd5b505050506040513d6020811015610e5d57600080fd5b5051600754604080516370a0823160e01b815230600482015290519293506000926001600160a01b03909216916370a0823191602480820192602092909190829003018186803b158015610eb057600080fd5b505afa158015610ec4573d6000803e3d6000fd5b505050506040513d6020811015610eda57600080fd5b505190506000610ef3836001600160701b038716611d86565b90506000610f0a836001600160701b038716611d86565b90506000610f1887876120c5565b6000549091508061111757600554604080517f7cd07e4700000000000000000000000000000000000000000000000000000000815290516000926001600160a01b031691637cd07e47916004808301926020929190829003018186803b158015610f8157600080fd5b505afa158015610f95573d6000803e3d6000fd5b505050506040513d6020811015610fab57600080fd5b50519050336001600160a01b038216141561108e57806001600160a01b03166340dc0e376040518163ffffffff1660e01b815260040160206040518083038186803b158015610ff957600080fd5b505afa15801561100d573d6000803e3d6000fd5b505050506040513d602081101561102357600080fd5b50519950891580159061103857506000198a14155b611089576040805162461bcd60e51b815260206004820152601560248201527f4261642064657369726564206c69717569646974790000000000000000000000604482015290519081900360640190fd5b611111565b6001600160a01b038116156110ea576040805162461bcd60e51b815260206004820152601660248201527f4d757374206e6f742068617665206d69677261746f7200000000000000000000604482015290519081900360640190fd5b6111026103e8610a716110fd8888611d1a565b612205565b995061111160006103e8612257565b5061115a565b6111576001600160701b03891661112e8684611d1a565b8161113557fe5b046001600160701b03891661114a8685611d1a565b8161115157fe5b046122e1565b98505b600089116111995760405162461bcd60e51b81526004018080602001828103825260288152602001806124ad6028913960400191505060405180910390fd5b6111a38a8a612257565b6111af86868a8a611dde565b81156111d9576008546111d5906001600160701b0380821691600160701b900416611d1a565b600b555b6040805185815260208101859052815133927f4c209b5fc8ad50758f13e2e1088ba56a560dff690a1c6fef26394f4c03821c4f928290030190a250506001600c5550949695505050505050565b60016020526000908152604090205481565b600b5481565b60046020526000908152604090205481565b600080600c5460011461129e576040805162461bcd60e51b8152602060048201526011602482015270155b9a5cddd85c158c8e881313d0d2d151607a1b604482015290519081900360640190fd5b6000600c819055806112ae610bb8565b50600654600754604080516370a0823160e01b815230600482015290519496509294506001600160a01b039182169391169160009184916370a08231916024808301926020929190829003018186803b15801561130a57600080fd5b505afa15801561131e573d6000803e3d6000fd5b505050506040513d602081101561133457600080fd5b5051604080516370a0823160e01b815230600482015290519192506000916001600160a01b038516916370a08231916024808301926020929190829003018186803b15801561138257600080fd5b505afa158015611396573d6000803e3d6000fd5b505050506040513d60208110156113ac57600080fd5b5051306000908152600160205260408120549192506113cb88886120c5565b600054909150806113dc8487611d1a565b816113e357fe5b049a50806113f18486611d1a565b816113f857fe5b04995060008b11801561140b575060008a115b6114465760405162461bcd60e51b81526004018080602001828103825260288152602001806124856028913960400191505060405180910390fd5b61145030846122f9565b61145b878d8d611b67565b611466868d8c611b67565b604080516370a0823160e01b815230600482015290516001600160a01b038916916370a08231916024808301926020929190829003018186803b1580156114ac57600080fd5b505afa1580156114c0573d6000803e3d6000fd5b505050506040513d60208110156114d657600080fd5b5051604080516370a0823160e01b815230600482015290519196506001600160a01b038816916370a0823191602480820192602092909190829003018186803b15801561152257600080fd5b505afa158015611536573d6000803e3d6000fd5b505050506040513d602081101561154c57600080fd5b5051935061155c85858b8b611dde565b811561158657600854611582906001600160701b0380821691600160701b900416611d1a565b600b555b604080518c8152602081018c905281516001600160a01b038f169233927fdccd412f0b1252819cb1fd330b93224ca42612892bb3f4f789976e6d81936496929081900390910190a35050505050505050506001600c81905550915091565b6040518060400160405280600381526020017f534c50000000000000000000000000000000000000000000000000000000000081525081565b6000610bef338484612017565b6103e881565b600c5460011461167b576040805162461bcd60e51b8152602060048201526011602482015270155b9a5cddd85c158c8e881313d0d2d151607a1b604482015290519081900360640190fd5b6000600c55600654600754600854604080516370a0823160e01b815230600482015290516001600160a01b039485169490931692611724928592879261171f926001600160701b03169185916370a0823191602480820192602092909190829003018186803b1580156116ed57600080fd5b505afa158015611701573d6000803e3d6000fd5b505050506040513d602081101561171757600080fd5b505190611d86565b611b67565b611798818461171f6008600e9054906101000a90046001600160701b03166001600160701b0316856001600160a01b03166370a08231306040518263ffffffff1660e01b815260040180826001600160a01b0316815260200191505060206040518083038186803b1580156116ed57600080fd5b50506001600c5550565b6005546001600160a01b031681565b6007546001600160a01b031681565b42841015611815576040805162461bcd60e51b815260206004820152601260248201527f556e697377617056323a20455850495245440000000000000000000000000000604482015290519081900360640190fd5b6003546001600160a01b0380891660008181526004602090815260408083208054600180820190925582517f6e71edae12b1b97f4d1f60370fef10105fa2faae0126114a169c64845d6126c98186015280840196909652958d166060860152608085018c905260a085019590955260c08085018b90528151808603909101815260e0850182528051908301207f19010000000000000000000000000000000000000000000000000000000000006101008601526101028501969096526101228085019690965280518085039096018652610142840180825286519683019690962095839052610162840180825286905260ff89166101828501526101a284018890526101c28401879052519193926101e280820193601f1981019281900390910190855afa15801561194b573d6000803e3d6000fd5b5050604051601f1901519150506001600160a01b038116158015906119815750886001600160a01b0316816001600160a01b0316145b6119d2576040805162461bcd60e51b815260206004820152601c60248201527f556e697377617056323a20494e56414c49445f5349474e415455524500000000604482015290519081900360640190fd5b6119dd898989611fb5565b505050505050505050565b600260209081526000928352604080842090915290825290205481565b600c54600114611a50576040805162461bcd60e51b8152602060048201526011602482015270155b9a5cddd85c158c8e881313d0d2d151607a1b604482015290519081900360640190fd5b6000600c55600654604080516370a0823160e01b81523060048201529051611b60926001600160a01b0316916370a08231916024808301926020929190829003018186803b158015611aa157600080fd5b505afa158015611ab5573d6000803e3d6000fd5b505050506040513d6020811015611acb57600080fd5b5051600754604080516370a0823160e01b815230600482015290516001600160a01b03909216916370a0823191602480820192602092909190829003018186803b158015611b1857600080fd5b505afa158015611b2c573d6000803e3d6000fd5b505050506040513d6020811015611b4257600080fd5b50516008546001600160701b0380821691600160701b900416611dde565b6001600c55565b604080518082018252601981527f7472616e7366657228616464726573732c75696e74323536290000000000000060209182015281516001600160a01b0385811660248301526044808301869052845180840390910181526064909201845291810180516001600160e01b03167fa9059cbb000000000000000000000000000000000000000000000000000000001781529251815160009460609489169392918291908083835b60208310611c2d5780518252601f199092019160209182019101611c0e565b6001836020036101000a0380198251168184511680821785525050505050509050019150506000604051808303816000865af19150503d8060008114611c8f576040519150601f19603f3d011682016040523d82523d6000602084013e611c94565b606091505b5091509150818015611cc2575080511580611cc25750808060200190516020811015611cbf57600080fd5b50515b611d13576040805162461bcd60e51b815260206004820152601a60248201527f556e697377617056323a205452414e534645525f4641494c4544000000000000604482015290519081900360640190fd5b5050505050565b6000811580611d3557505080820282828281611d3257fe5b04145b610bf3576040805162461bcd60e51b815260206004820152601460248201527f64732d6d6174682d6d756c2d6f766572666c6f77000000000000000000000000604482015290519081900360640190fd5b80820382811115610bf3576040805162461bcd60e51b815260206004820152601560248201527f64732d6d6174682d7375622d756e646572666c6f770000000000000000000000604482015290519081900360640190fd5b6001600160701b038411801590611dfc57506001600160701b038311155b611e4d576040805162461bcd60e51b815260206004820152601360248201527f556e697377617056323a204f564552464c4f5700000000000000000000000000604482015290519081900360640190fd5b60085463ffffffff42811691600160e01b90048116820390811615801590611e7d57506001600160701b03841615155b8015611e9157506001600160701b03831615155b15611efc578063ffffffff16611eb985611eaa8661238b565b6001600160e01b03169061239d565b600980546001600160e01b03929092169290920201905563ffffffff8116611ee484611eaa8761238b565b600a80546001600160e01b0392909216929092020190555b600880546dffffffffffffffffffffffffffff19166001600160701b03888116919091177fffffffff0000000000000000000000000000ffffffffffffffffffffffffffff16600160701b8883168102919091176001600160e01b0316600160e01b63ffffffff871602179283905560408051848416815291909304909116602082015281517f1c411e9a96e071241c2f21f7726b17ae89e3cab4c78be50e062b03a9fffbbad1929181900390910190a1505050505050565b6001600160a01b03808416600081815260026020908152604080832094871680845294825291829020859055815185815291517f8c5be1e5ebec7d5bd14f71427d1e84f3dd0314c0f7b2291e5b200ac8c7c3b9259281900390910190a3505050565b6001600160a01b03831660009081526001602052604090205461203a9082611d86565b6001600160a01b03808516600090815260016020526040808220939093559084168152205461206990826123c2565b6001600160a01b0380841660008181526001602090815260409182902094909455805185815290519193928716927fddf252ad1be2c89b69c2b068fc378daa952ba7f163c4a11628f55a4df523b3ef92918290030190a3505050565b600080600560009054906101000a90046001600160a01b03166001600160a01b031663017e7e586040518163ffffffff1660e01b815260040160206040518083038186803b15801561211657600080fd5b505afa15801561212a573d6000803e3d6000fd5b505050506040513d602081101561214057600080fd5b5051600b546001600160a01b0382161580159450919250906121f15780156121ec57600061217d6110fd6001600160701b03888116908816611d1a565b9050600061218a83612205565b9050808211156121e95760006121ac6121a38484611d86565b60005490611d1a565b905060006121c5836121bf866005611d1a565b906123c2565b905060008183816121d257fe5b04905080156121e5576121e58782612257565b5050505b50505b6121fd565b80156121fd576000600b555b505092915050565b60006003821115612248575080600160028204015b818110156122425780915060028182858161223157fe5b04018161223a57fe5b04905061221a565b50612252565b8115612252575060015b919050565b60005461226490826123c2565b60009081556001600160a01b03831681526001602052604090205461228990826123c2565b6001600160a01b03831660008181526001602090815260408083209490945583518581529351929391927fddf252ad1be2c89b69c2b068fc378daa952ba7f163c4a11628f55a4df523b3ef9281900390910190a35050565b60008183106122f057816122f2565b825b9392505050565b6001600160a01b03821660009081526001602052604090205461231c9082611d86565b6001600160a01b038316600090815260016020526040812091909155546123439082611d86565b60009081556040805183815290516001600160a01b038516917fddf252ad1be2c89b69c2b068fc378daa952ba7f163c4a11628f55a4df523b3ef919081900360200190a35050565b6001600160701b0316600160701b0290565b60006001600160701b0382166001600160e01b038416816123ba57fe5b049392505050565b80820182811015610bf3576040805162461bcd60e51b815260206004820152601460248201527f64732d6d6174682d6164642d6f766572666c6f77000000000000000000000000604482015290519081900360640190fdfe556e697377617056323a20494e53554646494349454e545f4f55545055545f414d4f554e54556e697377617056323a20494e53554646494349454e545f494e5055545f414d4f554e54556e697377617056323a20494e53554646494349454e545f4c4951554944495459556e697377617056323a20494e53554646494349454e545f4c49515549444954595f4255524e4544556e697377617056323a20494e53554646494349454e545f4c49515549444954595f4d494e544544a264697066735822122002f1bf97aa1a31f5aab66a989424fb876a4dcadbd4d250c042359e9123b8ff7864736f6c634300060c0033a2646970667358221220c5d95535958306573c27ea18e1683a77dba491770aea460f723970499eb04b5564736f6c634300060c0033",
  "linkReferences": {},
  "deployedLinkReferences": {}
}